{
  "_format": "hh-sol-artifact-1",
  "contractName": "AirdropClaims",
  "sourceName": "contracts/AirdropClaims.sol",
  "abi": [
    {
      "inputs": [
        {
          "internalType": "address",
          "name": "_Firefly",
          "type": "address"
        }
      ],
      "stateMutability": "nonpayable",
      "type": "constructor"
    },
    {
      "anonymous": false,
      "inputs": [
        {
          "indexed": true,
          "internalType": "address",
          "name": "previousOwner",
          "type": "address"
        },
        {
          "indexed": true,
          "internalType": "address",
          "name": "newOwner",
          "type": "address"
        }
      ],
      "name": "OwnershipTransferred",
      "type": "event"
    },
    {
      "inputs": [
        {
          "internalType": "address",
          "name": "_rewardee",
          "type": "address"
        },
        {
          "internalType": "uint256",
          "name": "amount",
          "type": "uint256"
        }
      ],
      "name": "addAirDrops",
      "outputs": [],
      "stateMutability": "nonpayable",
      "type": "function"
    },
    {
      "inputs": [],
      "name": "claim",
      "outputs": [],
      "stateMutability": "nonpayable",
      "type": "function"
    },
    {
      "inputs": [
        {
          "internalType": "address",
          "name": "",
          "type": "address"
        }
      ],
      "name": "claims",
      "outputs": [
        {
          "internalType": "uint256",
          "name": "",
          "type": "uint256"
        }
      ],
      "stateMutability": "view",
      "type": "function"
    },
    {
      "inputs": [],
      "name": "fireFly",
      "outputs": [
        {
          "internalType": "contract ERC20",
          "name": "",
          "type": "address"
        }
      ],
      "stateMutability": "view",
      "type": "function"
    },
    {
      "inputs": [],
      "name": "owner",
      "outputs": [
        {
          "internalType": "address",
          "name": "",
          "type": "address"
        }
      ],
      "stateMutability": "view",
      "type": "function"
    },
    {
      "inputs": [],
      "name": "renounceOwnership",
      "outputs": [],
      "stateMutability": "nonpayable",
      "type": "function"
    },
    {
      "inputs": [
        {
          "internalType": "address",
          "name": "newOwner",
          "type": "address"
        }
      ],
      "name": "transferOwnership",
      "outputs": [],
      "stateMutability": "nonpayable",
      "type": "function"
    }
  ],
  "bytecode": "0x608060405234801561001057600080fd5b5060405161083638038061083683398101604081905261002f9161037d565b6100383361032d565b600180546001600160a01b0319166001600160a01b039290921691909117815560026020819052600b7fe0fa46e05aea23174c64da86f1e51939a05a27a4a09576f802509ebd7fbc50585560057f750bce120b53192d583387093bc4e6af013e923c6d7553fde488ce477d61ae738190557ffdb7d667abc6fa4da47c907d3dde4ba9dab5a58d078f868c16096d2f8963e0748190557f75bebe7123d74d276c5e109c0bee29248b9e3527eb869fa962414e60c6daae4881905560037f7872ca1fc8c0e36176b16cd941d05ad209ceeb719be83e12e55d10d1204793ce81905560197f2d9c2fbdce24aa52655b53ca5ef902947f12280dbbcec9343802d6e06f5d0fd58190557f2619a27466b9e4b54ceb9bdf1a156b2c5ac8b0339be04475cc30453713b84ff38390557f328f9556ee559824b43bd5716036fc638845a3f40c0d330f3e0c788150990af49390935560087fa2cdf90945df9893a29a5c26929dfd04b4dc8ef1fd1bd072200724bd2126dfcd557fddc8362659f02f8661ecd78c78201595d72fd8e228e797d44ca0c5823aaabedf8190557ff078044fabb5cf870fd9b0f31ca0ce62d124f092bf8599336027d25fc94de61b919091557f407c4c636a7e23a1286609d92341693e44b34dca638238876d14fcc9b893e7ae8390557ff641536d4a1fe397019a958ae4f70691f7f0ad3647328a8b8426f337f4655d915560047f2a20d71ca6da988ddcee11a52ef0a095806050cbf7b21e3d4d323c6f5a79d29f557f84fce85424c8b79efd2fe27f8afd04db6346021b1c642ef18cb675285afe2f43829055600c7f442e583462980ffc2abbae6892b9f0c698e5948b0bf233e6ddd74a096507fa545560177fd84787b16824d7460e4f523c54e790950efe5056ebc24cabc2895d11b57aa80c557fa503d8ebf405de4a4da8774b87058cfc9c75c2740db161e2477bb83ee0ee764b91909155736ada303a63f3ee6e50d35206b05a901e9d19eeda6000527fbf53ad639cabd8b9493143b28c9ec0716f3bb96886fed57ec2b653a630f3089f556103ad565b600080546001600160a01b038381166001600160a01b0319831681178455604051919092169283917f8be0079c531659141344cd1fd0a4f28419497f9722a3daafe3b4186f6b6457e09190a35050565b60006020828403121561038f57600080fd5b81516001600160a01b03811681146103a657600080fd5b9392505050565b61047a806103bc6000396000f3fe608060405234801561001057600080fd5b506004361061007d5760003560e01c8063875502821161005b57806387550282146100c45780638da5cb5b146100d7578063c6788bdd146100e8578063f2fde38b1461011657600080fd5b80634e71d92d14610082578063715018a61461008c57806374b2460914610094575b600080fd5b61008a610129565b005b61008a6101e8565b6001546100a7906001600160a01b031681565b6040516001600160a01b0390911681526020015b60405180910390f35b61008a6100d2366004610374565b610227565b6000546001600160a01b03166100a7565b6101086100f636600461039e565b60026020526000908152604090205481565b6040519081526020016100bb565b61008a61012436600461039e565b61026d565b336000818152600260205260408120805491905560015490916001600160a01b039091169063a9059cbb9061016684670de0b6b3a76400006103c0565b6040516001600160e01b031960e085901b1681526001600160a01b0390921660048301526024820152604401602060405180830381600087803b1580156101ac57600080fd5b505af11580156101c0573d6000803e3d6000fd5b505050506040513d601f19601f820116820180604052508101906101e491906103ed565b5050565b6000546001600160a01b0316331461021b5760405162461bcd60e51b81526004016102129061040f565b60405180910390fd5b6102256000610308565b565b6000546001600160a01b031633146102515760405162461bcd60e51b81526004016102129061040f565b6001600160a01b03909116600090815260026020526040902055565b6000546001600160a01b031633146102975760405162461bcd60e51b81526004016102129061040f565b6001600160a01b0381166102fc5760405162461bcd60e51b815260206004820152602660248201527f4f776e61626c653a206e6577206f776e657220697320746865207a65726f206160448201526564647265737360d01b6064820152608401610212565b61030581610308565b50565b600080546001600160a01b038381166001600160a01b0319831681178455604051919092169283917f8be0079c531659141344cd1fd0a4f28419497f9722a3daafe3b4186f6b6457e09190a35050565b80356001600160a01b038116811461036f57600080fd5b919050565b6000806040838503121561038757600080fd5b61039083610358565b946020939093013593505050565b6000602082840312156103b057600080fd5b6103b982610358565b9392505050565b60008160001904831182151516156103e857634e487b7160e01b600052601160045260246000fd5b500290565b6000602082840312156103ff57600080fd5b815180151581146103b957600080fd5b6020808252818101527f4f776e61626c653a2063616c6c6572206973206e6f7420746865206f776e657260408201526060019056fea2646970667358221220d608ddf23f13f9a7f7ae5dd334ffd0f22e9edc3f30d246773b1166810bb6bb2964736f6c63430008090033",
  "linkReferences": {},
  "deployedLinkReferences": {}
}