{
  "_format": "hh-sol-artifact-1",
  "contractName": "FIREFLYV2",
  "sourceName": "contracts/FireflyV2.sol",
  "abi": [
    {
      "inputs": [],
      "stateMutability": "nonpayable",
      "type": "constructor"
    },
    {
      "anonymous": false,
      "inputs": [
        {
          "indexed": true,
          "internalType": "address",
          "name": "owner",
          "type": "address"
        },
        {
          "indexed": true,
          "internalType": "address",
          "name": "spender",
          "type": "address"
        },
        {
          "indexed": false,
          "internalType": "uint256",
          "name": "value",
          "type": "uint256"
        }
      ],
      "name": "Approval",
      "type": "event"
    },
    {
      "anonymous": false,
      "inputs": [
        {
          "indexed": true,
          "internalType": "uint256",
          "name": "epoch",
          "type": "uint256"
        },
        {
          "indexed": false,
          "internalType": "uint256",
          "name": "totalSupply",
          "type": "uint256"
        }
      ],
      "name": "LogRebase",
      "type": "event"
    },
    {
      "anonymous": false,
      "inputs": [
        {
          "indexed": true,
          "internalType": "address",
          "name": "account",
          "type": "address"
        }
      ],
      "name": "MinterAdded",
      "type": "event"
    },
    {
      "anonymous": false,
      "inputs": [
        {
          "indexed": true,
          "internalType": "address",
          "name": "account",
          "type": "address"
        }
      ],
      "name": "MinterRemoved",
      "type": "event"
    },
    {
      "anonymous": false,
      "inputs": [
        {
          "indexed": true,
          "internalType": "address",
          "name": "previousOwner",
          "type": "address"
        }
      ],
      "name": "OwnershipRenounced",
      "type": "event"
    },
    {
      "anonymous": false,
      "inputs": [
        {
          "indexed": true,
          "internalType": "address",
          "name": "previousOwner",
          "type": "address"
        },
        {
          "indexed": true,
          "internalType": "address",
          "name": "newOwner",
          "type": "address"
        }
      ],
      "name": "OwnershipTransferred",
      "type": "event"
    },
    {
      "anonymous": false,
      "inputs": [
        {
          "indexed": true,
          "internalType": "address",
          "name": "from",
          "type": "address"
        },
        {
          "indexed": true,
          "internalType": "address",
          "name": "to",
          "type": "address"
        },
        {
          "indexed": false,
          "internalType": "uint256",
          "name": "value",
          "type": "uint256"
        }
      ],
      "name": "Transfer",
      "type": "event"
    },
    {
      "inputs": [],
      "name": "RiskFreeValue",
      "outputs": [
        {
          "internalType": "uint256",
          "name": "",
          "type": "uint256"
        }
      ],
      "stateMutability": "view",
      "type": "function"
    },
    {
      "inputs": [],
      "name": "RiskFreeValueReceiver",
      "outputs": [
        {
          "internalType": "address",
          "name": "",
          "type": "address"
        }
      ],
      "stateMutability": "view",
      "type": "function"
    },
    {
      "inputs": [],
      "name": "Treasury",
      "outputs": [
        {
          "internalType": "uint256",
          "name": "",
          "type": "uint256"
        }
      ],
      "stateMutability": "view",
      "type": "function"
    },
    {
      "inputs": [],
      "name": "TreasuryReceiver",
      "outputs": [
        {
          "internalType": "address",
          "name": "",
          "type": "address"
        }
      ],
      "stateMutability": "view",
      "type": "function"
    },
    {
      "inputs": [
        {
          "internalType": "address",
          "name": "account",
          "type": "address"
        }
      ],
      "name": "addMinter",
      "outputs": [],
      "stateMutability": "nonpayable",
      "type": "function"
    },
    {
      "inputs": [
        {
          "internalType": "address",
          "name": "owner_",
          "type": "address"
        },
        {
          "internalType": "address",
          "name": "spender",
          "type": "address"
        }
      ],
      "name": "allowance",
      "outputs": [
        {
          "internalType": "uint256",
          "name": "",
          "type": "uint256"
        }
      ],
      "stateMutability": "view",
      "type": "function"
    },
    {
      "inputs": [
        {
          "internalType": "address",
          "name": "spender",
          "type": "address"
        },
        {
          "internalType": "uint256",
          "name": "value",
          "type": "uint256"
        }
      ],
      "name": "approve",
      "outputs": [
        {
          "internalType": "bool",
          "name": "",
          "type": "bool"
        }
      ],
      "stateMutability": "nonpayable",
      "type": "function"
    },
    {
      "inputs": [],
      "name": "autoLiquidityReceiver",
      "outputs": [
        {
          "internalType": "address",
          "name": "",
          "type": "address"
        }
      ],
      "stateMutability": "view",
      "type": "function"
    },
    {
      "inputs": [
        {
          "internalType": "address",
          "name": "who",
          "type": "address"
        }
      ],
      "name": "balanceOf",
      "outputs": [
        {
          "internalType": "uint256",
          "name": "",
          "type": "uint256"
        }
      ],
      "stateMutability": "view",
      "type": "function"
    },
    {
      "inputs": [
        {
          "internalType": "address",
          "name": "",
          "type": "address"
        }
      ],
      "name": "blacklist",
      "outputs": [
        {
          "internalType": "bool",
          "name": "",
          "type": "bool"
        }
      ],
      "stateMutability": "view",
      "type": "function"
    },
    {
      "inputs": [
        {
          "internalType": "address",
          "name": "_addr",
          "type": "address"
        }
      ],
      "name": "checkFeeExempt",
      "outputs": [
        {
          "internalType": "bool",
          "name": "",
          "type": "bool"
        }
      ],
      "stateMutability": "view",
      "type": "function"
    },
    {
      "inputs": [],
      "name": "checkSwapThreshold",
      "outputs": [
        {
          "internalType": "uint256",
          "name": "",
          "type": "uint256"
        }
      ],
      "stateMutability": "view",
      "type": "function"
    },
    {
      "inputs": [
        {
          "internalType": "uint256",
          "name": "amountPercentage",
          "type": "uint256"
        },
        {
          "internalType": "address",
          "name": "adr",
          "type": "address"
        }
      ],
      "name": "clearStuckBalance",
      "outputs": [],
      "stateMutability": "nonpayable",
      "type": "function"
    },
    {
      "inputs": [],
      "name": "decimals",
      "outputs": [
        {
          "internalType": "uint8",
          "name": "",
          "type": "uint8"
        }
      ],
      "stateMutability": "view",
      "type": "function"
    },
    {
      "inputs": [
        {
          "internalType": "address",
          "name": "spender",
          "type": "address"
        },
        {
          "internalType": "uint256",
          "name": "subtractedValue",
          "type": "uint256"
        }
      ],
      "name": "decreaseAllowance",
      "outputs": [
        {
          "internalType": "bool",
          "name": "",
          "type": "bool"
        }
      ],
      "stateMutability": "nonpayable",
      "type": "function"
    },
    {
      "inputs": [
        {
          "internalType": "address",
          "name": "_addr",
          "type": "address"
        }
      ],
      "name": "enableTransfer",
      "outputs": [],
      "stateMutability": "nonpayable",
      "type": "function"
    },
    {
      "inputs": [],
      "name": "feeDenominator",
      "outputs": [
        {
          "internalType": "uint256",
          "name": "",
          "type": "uint256"
        }
      ],
      "stateMutability": "view",
      "type": "function"
    },
    {
      "inputs": [],
      "name": "getCirculatingSupply",
      "outputs": [
        {
          "internalType": "uint256",
          "name": "",
          "type": "uint256"
        }
      ],
      "stateMutability": "view",
      "type": "function"
    },
    {
      "inputs": [
        {
          "internalType": "uint256",
          "name": "accuracy",
          "type": "uint256"
        }
      ],
      "name": "getLiquidityBacking",
      "outputs": [
        {
          "internalType": "uint256",
          "name": "",
          "type": "uint256"
        }
      ],
      "stateMutability": "view",
      "type": "function"
    },
    {
      "inputs": [
        {
          "internalType": "address",
          "name": "spender",
          "type": "address"
        },
        {
          "internalType": "uint256",
          "name": "addedValue",
          "type": "uint256"
        }
      ],
      "name": "increaseAllowance",
      "outputs": [
        {
          "internalType": "bool",
          "name": "",
          "type": "bool"
        }
      ],
      "stateMutability": "nonpayable",
      "type": "function"
    },
    {
      "inputs": [],
      "name": "initialDistributionFinished",
      "outputs": [
        {
          "internalType": "bool",
          "name": "",
          "type": "bool"
        }
      ],
      "stateMutability": "view",
      "type": "function"
    },
    {
      "inputs": [
        {
          "internalType": "address",
          "name": "account",
          "type": "address"
        }
      ],
      "name": "isMinter",
      "outputs": [
        {
          "internalType": "bool",
          "name": "",
          "type": "bool"
        }
      ],
      "stateMutability": "view",
      "type": "function"
    },
    {
      "inputs": [],
      "name": "isNotInSwap",
      "outputs": [
        {
          "internalType": "bool",
          "name": "",
          "type": "bool"
        }
      ],
      "stateMutability": "view",
      "type": "function"
    },
    {
      "inputs": [
        {
          "internalType": "uint256",
          "name": "target",
          "type": "uint256"
        },
        {
          "internalType": "uint256",
          "name": "accuracy",
          "type": "uint256"
        }
      ],
      "name": "isOverLiquified",
      "outputs": [
        {
          "internalType": "bool",
          "name": "",
          "type": "bool"
        }
      ],
      "stateMutability": "view",
      "type": "function"
    },
    {
      "inputs": [],
      "name": "isOwner",
      "outputs": [
        {
          "internalType": "bool",
          "name": "",
          "type": "bool"
        }
      ],
      "stateMutability": "view",
      "type": "function"
    },
    {
      "inputs": [],
      "name": "liquidityFee",
      "outputs": [
        {
          "internalType": "uint256",
          "name": "",
          "type": "uint256"
        }
      ],
      "stateMutability": "view",
      "type": "function"
    },
    {
      "inputs": [],
      "name": "manualSync",
      "outputs": [],
      "stateMutability": "nonpayable",
      "type": "function"
    },
    {
      "inputs": [
        {
          "internalType": "address",
          "name": "recipient",
          "type": "address"
        },
        {
          "internalType": "uint256",
          "name": "amount",
          "type": "uint256"
        }
      ],
      "name": "mint",
      "outputs": [],
      "stateMutability": "nonpayable",
      "type": "function"
    },
    {
      "inputs": [],
      "name": "name",
      "outputs": [
        {
          "internalType": "string",
          "name": "",
          "type": "string"
        }
      ],
      "stateMutability": "view",
      "type": "function"
    },
    {
      "inputs": [],
      "name": "owner",
      "outputs": [
        {
          "internalType": "address",
          "name": "",
          "type": "address"
        }
      ],
      "stateMutability": "view",
      "type": "function"
    },
    {
      "inputs": [],
      "name": "pair",
      "outputs": [
        {
          "internalType": "address",
          "name": "",
          "type": "address"
        }
      ],
      "stateMutability": "view",
      "type": "function"
    },
    {
      "inputs": [],
      "name": "pairContract",
      "outputs": [
        {
          "internalType": "contract InterfaceLP",
          "name": "",
          "type": "address"
        }
      ],
      "stateMutability": "view",
      "type": "function"
    },
    {
      "inputs": [],
      "name": "preEpoch",
      "outputs": [
        {
          "internalType": "uint256",
          "name": "",
          "type": "uint256"
        }
      ],
      "stateMutability": "view",
      "type": "function"
    },
    {
      "inputs": [
        {
          "internalType": "uint256",
          "name": "epoch",
          "type": "uint256"
        },
        {
          "internalType": "int256",
          "name": "supplyDelta",
          "type": "int256"
        }
      ],
      "name": "rebase",
      "outputs": [
        {
          "internalType": "uint256",
          "name": "",
          "type": "uint256"
        }
      ],
      "stateMutability": "nonpayable",
      "type": "function"
    },
    {
      "inputs": [
        {
          "internalType": "address",
          "name": "account",
          "type": "address"
        }
      ],
      "name": "removeMinter",
      "outputs": [],
      "stateMutability": "nonpayable",
      "type": "function"
    },
    {
      "inputs": [],
      "name": "renounceMinter",
      "outputs": [],
      "stateMutability": "nonpayable",
      "type": "function"
    },
    {
      "inputs": [],
      "name": "renounceOwnership",
      "outputs": [],
      "stateMutability": "nonpayable",
      "type": "function"
    },
    {
      "inputs": [
        {
          "internalType": "address",
          "name": "tokenAddress",
          "type": "address"
        },
        {
          "internalType": "uint256",
          "name": "tokens",
          "type": "uint256"
        }
      ],
      "name": "rescueToken",
      "outputs": [
        {
          "internalType": "bool",
          "name": "success",
          "type": "bool"
        }
      ],
      "stateMutability": "nonpayable",
      "type": "function"
    },
    {
      "inputs": [],
      "name": "router",
      "outputs": [
        {
          "internalType": "contract IDEXRouter",
          "name": "",
          "type": "address"
        }
      ],
      "stateMutability": "view",
      "type": "function"
    },
    {
      "inputs": [],
      "name": "sellFee",
      "outputs": [
        {
          "internalType": "uint256",
          "name": "",
          "type": "uint256"
        }
      ],
      "stateMutability": "view",
      "type": "function"
    },
    {
      "inputs": [
        {
          "internalType": "address[]",
          "name": "recipients",
          "type": "address[]"
        },
        {
          "internalType": "uint256[]",
          "name": "values",
          "type": "uint256[]"
        }
      ],
      "name": "sendPresale",
      "outputs": [],
      "stateMutability": "nonpayable",
      "type": "function"
    },
    {
      "inputs": [
        {
          "internalType": "address",
          "name": "_addr",
          "type": "address"
        }
      ],
      "name": "setFeeExempt",
      "outputs": [],
      "stateMutability": "nonpayable",
      "type": "function"
    },
    {
      "inputs": [
        {
          "internalType": "address",
          "name": "_autoLiquidityReceiver",
          "type": "address"
        },
        {
          "internalType": "address",
          "name": "_TreasuryReceiver",
          "type": "address"
        },
        {
          "internalType": "address",
          "name": "_RiskFreeValueReceiver",
          "type": "address"
        }
      ],
      "name": "setFeeReceivers",
      "outputs": [],
      "stateMutability": "nonpayable",
      "type": "function"
    },
    {
      "inputs": [
        {
          "internalType": "uint256",
          "name": "_liquidityFee",
          "type": "uint256"
        },
        {
          "internalType": "uint256",
          "name": "_RiskFreeValue",
          "type": "uint256"
        },
        {
          "internalType": "uint256",
          "name": "_Treasury",
          "type": "uint256"
        },
        {
          "internalType": "uint256",
          "name": "_sellFee",
          "type": "uint256"
        },
        {
          "internalType": "uint256",
          "name": "_feeDenominator",
          "type": "uint256"
        }
      ],
      "name": "setFees",
      "outputs": [],
      "stateMutability": "nonpayable",
      "type": "function"
    },
    {
      "inputs": [
        {
          "internalType": "bool",
          "name": "value",
          "type": "bool"
        }
      ],
      "name": "setInitialDistributionFinished",
      "outputs": [],
      "stateMutability": "nonpayable",
      "type": "function"
    },
    {
      "inputs": [
        {
          "internalType": "address",
          "name": "_address",
          "type": "address"
        }
      ],
      "name": "setLP",
      "outputs": [],
      "stateMutability": "nonpayable",
      "type": "function"
    },
    {
      "inputs": [
        {
          "internalType": "bool",
          "name": "_enabled",
          "type": "bool"
        },
        {
          "internalType": "uint256",
          "name": "_num",
          "type": "uint256"
        },
        {
          "internalType": "uint256",
          "name": "_denom",
          "type": "uint256"
        }
      ],
      "name": "setSwapBackSettings",
      "outputs": [],
      "stateMutability": "nonpayable",
      "type": "function"
    },
    {
      "inputs": [
        {
          "internalType": "uint256",
          "name": "target",
          "type": "uint256"
        },
        {
          "internalType": "uint256",
          "name": "accuracy",
          "type": "uint256"
        }
      ],
      "name": "setTargetLiquidity",
      "outputs": [],
      "stateMutability": "nonpayable",
      "type": "function"
    },
    {
      "inputs": [],
      "name": "swapEnabled",
      "outputs": [
        {
          "internalType": "bool",
          "name": "",
          "type": "bool"
        }
      ],
      "stateMutability": "view",
      "type": "function"
    },
    {
      "inputs": [],
      "name": "symbol",
      "outputs": [
        {
          "internalType": "string",
          "name": "",
          "type": "string"
        }
      ],
      "stateMutability": "view",
      "type": "function"
    },
    {
      "inputs": [],
      "name": "toggleRebase",
      "outputs": [],
      "stateMutability": "nonpayable",
      "type": "function"
    },
    {
      "inputs": [],
      "name": "totalFee",
      "outputs": [
        {
          "internalType": "uint256",
          "name": "",
          "type": "uint256"
        }
      ],
      "stateMutability": "view",
      "type": "function"
    },
    {
      "inputs": [],
      "name": "totalSupply",
      "outputs": [
        {
          "internalType": "uint256",
          "name": "",
          "type": "uint256"
        }
      ],
      "stateMutability": "view",
      "type": "function"
    },
    {
      "inputs": [
        {
          "internalType": "address",
          "name": "to",
          "type": "address"
        },
        {
          "internalType": "uint256",
          "name": "value",
          "type": "uint256"
        }
      ],
      "name": "transfer",
      "outputs": [
        {
          "internalType": "bool",
          "name": "",
          "type": "bool"
        }
      ],
      "stateMutability": "nonpayable",
      "type": "function"
    },
    {
      "inputs": [
        {
          "internalType": "address",
          "name": "from",
          "type": "address"
        },
        {
          "internalType": "address",
          "name": "to",
          "type": "address"
        },
        {
          "internalType": "uint256",
          "name": "value",
          "type": "uint256"
        }
      ],
      "name": "transferFrom",
      "outputs": [
        {
          "internalType": "bool",
          "name": "",
          "type": "bool"
        }
      ],
      "stateMutability": "nonpayable",
      "type": "function"
    },
    {
      "inputs": [
        {
          "internalType": "address",
          "name": "newOwner",
          "type": "address"
        }
      ],
      "name": "transferOwnership",
      "outputs": [],
      "stateMutability": "nonpayable",
      "type": "function"
    },
    {
      "inputs": [
        {
          "internalType": "address",
          "name": "_user",
          "type": "address"
        },
        {
          "internalType": "bool",
          "name": "_flag",
          "type": "bool"
        }
      ],
      "name": "updateBlacklist",
      "outputs": [],
      "stateMutability": "nonpayable",
      "type": "function"
    },
    {
      "inputs": [
        {
          "internalType": "uint256",
          "name": "_tfrLimits",
          "type": "uint256"
        }
      ],
      "name": "updateLimitOfTransfer",
      "outputs": [],
      "stateMutability": "nonpayable",
      "type": "function"
    },
    {
      "inputs": [
        {
          "internalType": "uint256",
          "name": "timeInterval",
          "type": "uint256"
        }
      ],
      "name": "updateTimeIntervalRebase",
      "outputs": [],
      "stateMutability": "nonpayable",
      "type": "function"
    },
    {
      "inputs": [
        {
          "internalType": "uint256",
          "name": "timeInterval",
          "type": "uint256"
        }
      ],
      "name": "updateTimeIntervalTransfer",
      "outputs": [],
      "stateMutability": "nonpayable",
      "type": "function"
    },
    {
      "stateMutability": "payable",
      "type": "receive"
    }
  ],
  "bytecode": "0x60806040526005600755600360085560056009556005600a55620000516009546200003d600854600754620004bb60201b62001de61790919060201c565b620004bb60201b62001de61790919060201c565b600b556064600c819055600d80546001600160a01b031990811661dead17909155600e8054909116905560326012556013556015805460ff60a01b1916600160a01b17905561271069538dffc85f9277ffffff19046016556019601d55613840601f556001602155348015620000c657600080fd5b50604080518082018252601081526f2334b932b3363c902a37b5b2b7102b1960811b6020808301918252835180850190945260098452682324a922a3262cab1960b91b908401528151919291601291620001249160009190620007c8565b5081516200013a906001906020850190620007c8565b5060028054336101008102610100600160a81b031960ff90951660ff19909316929092179390931617905562000173925090506200051d565b601480546001600160a01b031916731b02da8cb0d097eb8d57a175b88c7d8b4799750617908190556040805163c45a015560e01b815290516001600160a01b03929092169163c45a015591600480820192602092909190829003018186803b158015620001df57600080fd5b505afa158015620001f4573d6000803e3d6000fd5b505050506040513d60208110156200020b57600080fd5b5051601454604080516315ab88c960e31b815290516001600160a01b039384169363c9c6539693169163ad5c4648916004808301926020929190829003018186803b1580156200025a57600080fd5b505afa1580156200026f573d6000803e3d6000fd5b505050506040513d60208110156200028657600080fd5b5051604080516001600160e01b031960e085901b1681526001600160a01b0390921660048301523060248301525160448083019260209291908290030181600087803b158015620002d657600080fd5b505af1158015620002eb573d6000803e3d6000fd5b505050506040513d60208110156200030257600080fd5b5051601580546001600160a01b039283166001600160a01b0319918216178255600f8054821673473f1a85a09b060fd3b9abdbda231744210886031790556010805482163317815560118054831673723cad7fcead7bfe60ed3e53ff6b2696fdf026a2179055306000908152601b60209081526040808320601454881684528252808320600019905594546004805490951690871617909355690a968163f0a57b400000601890815591549094168452601a82529190922069085afffa6ff50bffffff19908190559054620003e0926200056f811b62001e4017901c565b6019556004805460ff60a01b19169055601080546001600160a01b03908116600090815260066020526040808220805460ff199081166001908117909255308452919092208054909116909117905590546200043d9116620005b9565b3360009081526005602090815260408083208054600160ff199182168117909255602280549091169091179055426025556021839055601054601854825190815291516001600160a01b0390911693927fddf252ad1be2c89b69c2b068fc378daa952ba7f163c4a11628f55a4df523b3ef928290030190a362000874565b60008282018381101562000516576040805162461bcd60e51b815260206004820152601b60248201527f536166654d6174683a206164646974696f6e206f766572666c6f770000000000604482015290519081900360640190fd5b9392505050565b620005388160036200063460201b62001e821790919060201c565b6040516001600160a01b038216907f6ae172837ea30b801fbfcdd4108aa1d5bf8ff775444fd70256b44e6bf3dfc3f690600090a250565b60006200051683836040518060400160405280601a81526020017f536166654d6174683a206469766973696f6e206279207a65726f000000000000815250620006b860201b60201c565b6001600160a01b038116620005cd57600080fd5b6002546040516001600160a01b0380841692610100900416907f8be0079c531659141344cd1fd0a4f28419497f9722a3daafe3b4186f6b6457e090600090a3600280546001600160a01b0390921661010002610100600160a81b0319909216919091179055565b6200064082826200075f565b1562000693576040805162461bcd60e51b815260206004820152601f60248201527f526f6c65733a206163636f756e7420616c72656164792068617320726f6c6500604482015290519081900360640190fd5b6001600160a01b0316600090815260209190915260409020805460ff19166001179055565b60008183620007485760405162461bcd60e51b81526004018080602001828103825283818151815260200191508051906020019080838360005b838110156200070c578181015183820152602001620006f2565b50505050905090810190601f1680156200073a5780820380516001836020036101000a031916815260200191505b509250505060405180910390fd5b5060008385816200075557fe5b0495945050505050565b60006001600160a01b038216620007a85760405162461bcd60e51b8152600401808060200182810382526022815260200180620033e06022913960400191505060405180910390fd5b506001600160a01b03166000908152602091909152604090205460ff1690565b828054600181600116156101000203166002900490600052602060002090601f0160209004810192826200080057600085556200084b565b82601f106200081b57805160ff19168380011785556200084b565b828001600101855582156200084b579182015b828111156200084b5782518255916020019190600101906200082e565b50620008599291506200085d565b5090565b5b808211156200085957600081556001016200085e565b612b5c80620008846000396000f3fe60806040526004361061039b5760003560e01c8063800cee51116101dc578063bda5c8bb11610102578063d5938aac116100a0578063ead0d84b1161006f578063ead0d84b14610d55578063f2fde38b14610d7f578063f887ea4014610db2578063f9f92be414610dc7576103a2565b8063d5938aac14610c8d578063d7ac658514610cc0578063d7c0103214610cd5578063dd62ed3e14610d1a576103a2565b8063d1fce264116100dc578063d1fce26414610b4c578063d37e219d14610b61578063d439979014610c30578063d51ed1c814610c63576103a2565b8063bda5c8bb14610aea578063ca33e64c14610aff578063d088935814610b14576103a2565b806398118cb41161017a578063a8aa1b3111610149578063a8aa1b3114610a3f578063a9059cbb14610a54578063aa271e1a14610a8d578063bceacc3614610ac0576103a2565b806398118cb4146109a9578063983b2d56146109be57806398650275146109f1578063a457c2d714610a06576103a2565b80638da5cb5b116101b65780638da5cb5b1461092f5780638f32d59b146109445780639155e0831461095957806395d89b4114610994576103a2565b8063800cee51146108db578063800dd110146108f057806383b4ac681461091a576103a2565b8063313ce567116102c15780636d351d1a1161025f578063749796a51161022e578063749796a51461084e578063753d02a114610881578063786ffeb8146108965780637a43e23f146108ab576103a2565b80636d351d1a146107dc5780636ddd1713146107f157806370a0823114610806578063715018a614610839576103a2565b806340c10f191161029b57806340c10f19146107245780634d709adf1461075d578063563df32f1461078e57806356a227f2146107a3576103a2565b8063313ce5671461068757806333f3d628146106b257806339509351146106eb576103a2565b806318160ddd116103395780632b112e49116103085780632b112e49146105f75780632b14ca561461060c5780632f34d282146106215780633092afd514610654576103a2565b806318160ddd1461055a5780631df4ccfc1461056f578063201e79911461058457806323b872dd146105b4576103a2565b80631161ae39116103755780631161ae39146104c25780631276089b146104f257806313713c3e1461051e578063180b0d7e14610545576103a2565b806304a66b48146103a757806306fdde03146103eb578063095ea7b314610475576103a2565b366103a257005b600080fd5b3480156103b357600080fd5b506103e9600480360360a08110156103ca57600080fd5b5080359060208101359060408101359060608101359060800135610dfa565b005b3480156103f757600080fd5b50610400610e53565b6040805160208082528351818301528351919283929083019185019080838360005b8381101561043a578181015183820152602001610422565b50505050905090810190601f1680156104675780820380516001836020036101000a031916815260200191505b509250505060405180910390f35b34801561048157600080fd5b506104ae6004803603604081101561049857600080fd5b506001600160a01b038135169060200135610ee9565b604080519115158252519081900360200190f35b3480156104ce57600080fd5b506104ae600480360360408110156104e557600080fd5b5080359060200135610f92565b3480156104fe57600080fd5b506103e96004803603602081101561051557600080fd5b50351515610fa6565b34801561052a57600080fd5b50610533610fd5565b60408051918252519081900360200190f35b34801561055157600080fd5b50610533610fdb565b34801561056657600080fd5b50610533610fe1565b34801561057b57600080fd5b50610533610fe7565b34801561059057600080fd5b506103e9600480360360408110156105a757600080fd5b5080359060200135610fed565b3480156105c057600080fd5b506104ae600480360360608110156105d757600080fd5b506001600160a01b03813581169160208101359091169060400135611009565b34801561060357600080fd5b506105336110e3565b34801561061857600080fd5b50610533611143565b34801561062d57600080fd5b506103e96004803603602081101561064457600080fd5b50356001600160a01b0316611149565b34801561066057600080fd5b506103e96004803603602081101561067757600080fd5b50356001600160a01b0316611183565b34801561069357600080fd5b5061069c6111a0565b6040805160ff9092168252519081900360200190f35b3480156106be57600080fd5b506104ae600480360360408110156106d557600080fd5b506001600160a01b0381351690602001356111a9565b3480156106f757600080fd5b506104ae6004803603604081101561070e57600080fd5b506001600160a01b03813516906020013561123e565b34801561073057600080fd5b506103e96004803603604081101561074757600080fd5b506001600160a01b038135169060200135611312565b34801561076957600080fd5b50610772611444565b604080516001600160a01b039092168252519081900360200190f35b34801561079a57600080fd5b50610533611453565b3480156107af57600080fd5b506103e9600480360360408110156107c657600080fd5b50803590602001356001600160a01b0316611459565b3480156107e857600080fd5b506105336114ac565b3480156107fd57600080fd5b506104ae6114c5565b34801561081257600080fd5b506105336004803603602081101561082957600080fd5b50356001600160a01b03166114d5565b34801561084557600080fd5b506103e96114fd565b34801561085a57600080fd5b506103e96004803603602081101561087157600080fd5b50356001600160a01b031661155d565b34801561088d57600080fd5b506103e9611592565b3480156108a257600080fd5b506103e96115f6565b3480156108b757600080fd5b50610533600480360360408110156108ce57600080fd5b508035906020013561161b565b3480156108e757600080fd5b506107726118a8565b3480156108fc57600080fd5b506103e96004803603602081101561091357600080fd5b50356118b7565b34801561092657600080fd5b506104ae6118cd565b34801561093b57600080fd5b506107726118d7565b34801561095057600080fd5b506104ae6118eb565b34801561096557600080fd5b506103e96004803603604081101561097c57600080fd5b506001600160a01b0381351690602001351515611901565b3480156109a057600080fd5b5061040061193d565b3480156109b557600080fd5b5061053361199d565b3480156109ca57600080fd5b506103e9600480360360208110156109e157600080fd5b50356001600160a01b03166119a3565b3480156109fd57600080fd5b506103e96119bd565b348015610a1257600080fd5b506104ae60048036036040811015610a2957600080fd5b506001600160a01b0381351690602001356119c8565b348015610a4b57600080fd5b50610772611af2565b348015610a6057600080fd5b506104ae60048036036040811015610a7757600080fd5b506001600160a01b038135169060200135611b01565b348015610a9957600080fd5b506104ae60048036036020811015610ab057600080fd5b50356001600160a01b0316611b6b565b348015610acc57600080fd5b506103e960048036036020811015610ae357600080fd5b5035611b78565b348015610af657600080fd5b50610533611b8e565b348015610b0b57600080fd5b50610772611b94565b348015610b2057600080fd5b506103e960048036036060811015610b3757600080fd5b50803515159060208101359060400135611ba3565b348015610b5857600080fd5b506104ae611bf4565b348015610b6d57600080fd5b506103e960048036036040811015610b8457600080fd5b810190602081018135640100000000811115610b9f57600080fd5b820183602082011115610bb157600080fd5b80359060200191846020830284011164010000000083111715610bd357600080fd5b919390929091602081019035640100000000811115610bf157600080fd5b820183602082011115610c0357600080fd5b80359060200191846020830284011164010000000083111715610c2557600080fd5b509092509050611c04565b348015610c3c57600080fd5b506104ae60048036036020811015610c5357600080fd5b50356001600160a01b0316611c61565b348015610c6f57600080fd5b5061053360048036036020811015610c8657600080fd5b5035611c7f565b348015610c9957600080fd5b506103e960048036036020811015610cb057600080fd5b50356001600160a01b0316611cd3565b348015610ccc57600080fd5b50610772611d08565b348015610ce157600080fd5b506103e960048036036060811015610cf857600080fd5b506001600160a01b038135811691602081013582169160409091013516611d17565b348015610d2657600080fd5b5061053360048036036040811015610d3d57600080fd5b506001600160a01b0381358116916020013516611d67565b348015610d6157600080fd5b506103e960048036036020811015610d7857600080fd5b5035611d92565b348015610d8b57600080fd5b506103e960048036036020811015610da257600080fd5b50356001600160a01b0316611da8565b348015610dbe57600080fd5b50610772611dc2565b348015610dd357600080fd5b506104ae60048036036020811015610dea57600080fd5b50356001600160a01b0316611dd1565b610e026118eb565b610e0b57600080fd5b600785905560098490556008839055600a829055610e3384610e2d8786611de6565b90611de6565b600b55600c81905560048104600b5410610e4c57600080fd5b5050505050565b60008054604080516020601f6002600019610100600188161502019095169490940493840181900481028201810190925282815260609390929091830182828015610edf5780601f10610eb457610100808354040283529160200191610edf565b820191906000526020600020905b815481529060010190602001808311610ec257829003601f168201915b5050505050905090565b600454600090600160a01b900460ff1680610f075750610f076118eb565b80610f2157503360009081526005602052604090205460ff165b610f2a57600080fd5b336000818152601b602090815260408083206001600160a01b03881680855290835292819020869055805186815290519293927f8c5be1e5ebec7d5bd14f71427d1e84f3dd0314c0f7b2291e5b200ac8c7c3b925929181900390910190a35060015b92915050565b600082610f9e83611c7f565b119392505050565b610fae6118eb565b610fb757600080fd5b60048054911515600160a01b0260ff60a01b19909216919091179055565b60215481565b600c5481565b60185490565b600b5481565b610ff56118eb565b610ffe57600080fd5b601291909155601355565b6000826001600160a01b03811661101f57600080fd5b6001600160a01b0385166000908152601b60209081526040808320338452909152902054600019146110cc576040805180820182526016815275496e73756666696369656e7420416c6c6f77616e636560501b6020808301919091526001600160a01b0388166000908152601b825283812033825290915291909120546110a7918590611f03565b6001600160a01b0386166000908152601b602090815260408083203384529091529020555b6110d7858585611f9a565b50600195945050505050565b601954600e546001600160a01b039081166000908152601a602052604080822054600d549093168252812054909261113e92909161113891906111329069085afffa6ff50bffffff199061217c565b9061217c565b90611e40565b905090565b600a5481565b6111516118eb565b61115a57600080fd5b600480546001600160a01b039092166001600160a01b0319909216821790556000526006602052565b61118b6118eb565b61119457600080fd5b61119d816121be565b50565b60025460ff1690565b60006111b36118eb565b6111bc57600080fd5b6040805163a9059cbb60e01b81523360048201526024810184905290516001600160a01b0385169163a9059cbb9160448083019260209291908290030181600087803b15801561120b57600080fd5b505af115801561121f573d6000803e3d6000fd5b505050506040513d602081101561123557600080fd5b50519392505050565b600454600090600160a01b900460ff168061125c575061125c6118eb565b8061127657503360009081526005602052604090205460ff165b61127f57600080fd5b336000908152601b602090815260408083206001600160a01b03871684529091529020546112ad9083611de6565b336000818152601b602090815260408083206001600160a01b0389168085529083529281902085905580519485525191937f8c5be1e5ebec7d5bd14f71427d1e84f3dd0314c0f7b2291e5b200ac8c7c3b925929081900390910190a350600192915050565b61131b33611b6b565b6113565760405162461bcd60e51b8152600401808060200182810382526030815260200180612a936030913960400191505060405180910390fd5b6018546113639082611de6565b60188190556001600160801b031015611382576001600160801b036018555b6018546113a090690a968163f0a57b4000006000195b061990611e40565b601955600480546040805160016209351760e01b0319815290516001600160a01b039092169263fff6cae992828201926000929082900301818387803b1580156113e957600080fd5b505af11580156113fd573d6000803e3d6000fd5b5050506001600160a01b0383166000908152601a6020526040902054611424915082611de6565b6001600160a01b039092166000908152601a602052604090209190915550565b6004546001600160a01b031681565b60085481565b6114616118eb565b61146a57600080fd5b60405147906001600160a01b0383169060648584020480156108fc02916000818181858888f193505050501580156114a6573d6000803e3d6000fd5b50505050565b600061113e601954601654611e4090919063ffffffff16565b601554600160a01b900460ff1681565b6019546001600160a01b0382166000908152601a60205260408120549091610f8c9190611e40565b6115056118eb565b61150e57600080fd5b6002546040516101009091046001600160a01b0316907ff8df31144d9c2f0f6b59d69b8b98abd5459d07f2742c4df920b25aae33c6482090600090a260028054610100600160a81b0319169055565b6115656118eb565b61156e57600080fd5b6001600160a01b03166000908152600660205260409020805460ff19166001179055565b601560009054906101000a90046001600160a01b03166001600160a01b031663fff6cae96040518163ffffffff1660e01b8152600401600060405180830381600087803b1580156115e257600080fd5b505af11580156114a6573d6000803e3d6000fd5b6115fe6118eb565b61160757600080fd5b6022805460ff19811660ff90911615179055565b60006116256118eb565b61162e57600080fd5b60175460ff1615611672576040805162461bcd60e51b81526020600482015260096024820152682a393c9030b3b0b4b760b91b604482015290519081900360640190fd5b60225460ff16156116ca576040805162461bcd60e51b815260206004820152601960248201527f57616974696e6720666f722052656261736520546f67676c6500000000000000604482015290519081900360640190fd5b4260255410611715576040805162461bcd60e51b815260206004820152601260248201527157616974696e6720666f722052656261736560701b604482015290519081900360640190fd5b60215483116117555760405162461bcd60e51b8152600401808060200182810382526022815260200180612a716022913960400191505060405180910390fd5b8161179b57601854604080519182525184917f72725a3b1e5bd622d6bcd1339bb31279c351abe8f541ac7fd320f24e1b1641f2919081900360200190a250601854610f8c565b60008212156117bd576018546117b590600084900361217c565b6018556117ce565b6018546117ca9083611de6565b6018555b6018546001600160801b0310156117eb576001600160801b036018555b60185461180590690a968163f0a57b400000600019611398565b601955600480546040805160016209351760e01b0319815290516001600160a01b039092169263fff6cae992828201926000929082900301818387803b15801561184e57600080fd5b505af1158015611862573d6000803e3d6000fd5b505060185460408051918252518693507f72725a3b1e5bd622d6bcd1339bb31279c351abe8f541ac7fd320f24e1b1641f292509081900360200190a25060185492915050565b6010546001600160a01b031681565b6118bf6118eb565b6118c857600080fd5b601f55565b60175460ff161590565b60025461010090046001600160a01b031690565b60025461010090046001600160a01b0316331490565b6119096118eb565b61191257600080fd5b6001600160a01b03919091166000908152601c60205260409020805460ff1916911515919091179055565b60018054604080516020601f60026000196101008789161502019095169490940493840181900481028201810190925282815260609390929091830182828015610edf5780601f10610eb457610100808354040283529160200191610edf565b60075481565b6119ab6118eb565b6119b457600080fd5b61119d81612200565b6119c6336121be565b565b600454600090600160a01b900460ff16806119e657506119e66118eb565b80611a0057503360009081526005602052604090205460ff165b611a0957600080fd5b336000908152601b602090815260408083206001600160a01b0387168452909152902054808310611a5d57336000908152601b602090815260408083206001600160a01b0388168452909152812055611a8c565b611a67818461217c565b336000908152601b602090815260408083206001600160a01b03891684529091529020555b336000818152601b602090815260408083206001600160a01b0389168085529083529281902054815190815290519293927f8c5be1e5ebec7d5bd14f71427d1e84f3dd0314c0f7b2291e5b200ac8c7c3b925929181900390910190a35060019392505050565b6015546001600160a01b031681565b6000826001600160a01b038116611b1757600080fd5b600454600160a01b900460ff1680611b325750611b326118eb565b80611b4c57503360009081526005602052604090205460ff165b611b5557600080fd5b611b60338585611f9a565b506001949350505050565b6000610f8c600383612242565b611b806118eb565b611b8957600080fd5b602355565b60095481565b600f546001600160a01b031681565b611bab6118eb565b611bb457600080fd5b6015805460ff60a01b1916600160a01b85151502179055611bec82611be683690a968163f0a57b400000600019611398565b906122a9565b601655505050565b600454600160a01b900460ff1681565b611c0c6118eb565b611c1557600080fd5b60005b83811015610e4c57611c5833868684818110611c3057fe5b905060200201356001600160a01b0316858585818110611c4c57fe5b90506020020135611f9a565b50600101611c18565b6001600160a01b031660009081526006602052604090205460ff1690565b6019546015546001600160a01b03166000908152601a602052604081205490918291611caa91611e40565b9050611ccc611cb76110e3565b611138611cc58460026122a9565b86906122a9565b9392505050565b611cdb6118eb565b611ce457600080fd5b6001600160a01b03166000908152600560205260409020805460ff19166001179055565b6011546001600160a01b031681565b611d1f6118eb565b611d2857600080fd5b600f80546001600160a01b039485166001600160a01b031991821617909155601080549385169382169390931790925560118054919093169116179055565b6001600160a01b039182166000908152601b6020908152604080832093909416825291909152205490565b611d9a6118eb565b611da357600080fd5b601d55565b611db06118eb565b611db957600080fd5b61119d81612302565b6014546001600160a01b031681565b601c6020526000908152604090205460ff1681565b600082820183811015611ccc576040805162461bcd60e51b815260206004820152601b60248201527f536166654d6174683a206164646974696f6e206f766572666c6f770000000000604482015290519081900360640190fd5b6000611ccc83836040518060400160405280601a81526020017f536166654d6174683a206469766973696f6e206279207a65726f00000000000081525061237c565b611e8c8282612242565b15611ede576040805162461bcd60e51b815260206004820152601f60248201527f526f6c65733a206163636f756e7420616c72656164792068617320726f6c6500604482015290519081900360640190fd5b6001600160a01b0316600090815260209190915260409020805460ff19166001179055565b60008184841115611f925760405162461bcd60e51b81526004018080602001828103825283818151815260200191508051906020019080838360005b83811015611f57578181015183820152602001611f3f565b50505050905090810190601f168015611f845780820380516001836020036101000a031916815260200191505b509250505060405180910390fd5b505050900390565b6001600160a01b0383166000908152601c602052604081205460ff16158015611fdc57506001600160a01b0383166000908152601c602052604090205460ff16155b61201c576040805162461bcd60e51b815260206004820152600c60248201526b1a5b97d89b1858dadb1a5cdd60a21b604482015290519081900360640190fd5b60175460ff1615612039576120328484846123e1565b9050611ccc565b6000612050601954846122a990919063ffffffff16565b6001600160a01b038616600090815260208052604090204290819055601f5401601e55905061207d612473565b1561208a5761208a6124c9565b6001600160a01b0385166000908152601a60205260409020546120ad908261217c565b6001600160a01b0386166000908152601a60205260408120919091556120d386866128e3565b6120dd57816120e8565b6120e8868684612937565b6001600160a01b0386166000908152601a602052604090205490915061210e9082611de6565b6001600160a01b038087166000818152601a6020526040902092909255601954908816907fddf252ad1be2c89b69c2b068fc378daa952ba7f163c4a11628f55a4df523b3ef9061215f908590611e40565b60408051918252519081900360200190a350600195945050505050565b6000611ccc83836040518060400160405280601e81526020017f536166654d6174683a207375627472616374696f6e206f766572666c6f770000815250611f03565b6121c9600382612a09565b6040516001600160a01b038216907fe94479a9f7e1952cc78f2d6baab678adc1b772d936c6583def489e524cb6669290600090a250565b61220b600382611e82565b6040516001600160a01b038216907f6ae172837ea30b801fbfcdd4108aa1d5bf8ff775444fd70256b44e6bf3dfc3f690600090a250565b60006001600160a01b0382166122895760405162461bcd60e51b8152600401808060200182810382526022815260200180612b056022913960400191505060405180910390fd5b506001600160a01b03166000908152602091909152604090205460ff1690565b6000826122b857506000610f8c565b828202828482816122c557fe5b0414611ccc5760405162461bcd60e51b8152600401808060200182810382526021815260200180612ae46021913960400191505060405180910390fd5b6001600160a01b03811661231557600080fd5b6002546040516001600160a01b0380841692610100900416907f8be0079c531659141344cd1fd0a4f28419497f9722a3daafe3b4186f6b6457e090600090a3600280546001600160a01b0390921661010002610100600160a81b0319909216919091179055565b600081836123cb5760405162461bcd60e51b8152602060048201818152835160248401528351909283926044909101919085019080838360008315611f57578181015183820152602001611f3f565b5060008385816123d757fe5b0495945050505050565b6000806123f9601954846122a990919063ffffffff16565b6001600160a01b0386166000908152601a602052604090205490915061241f908261217c565b6001600160a01b038087166000908152601a6020526040808220939093559086168152205461244e9082611de6565b6001600160a01b0385166000908152601a602052604090205550600190509392505050565b6015546000906001600160a01b03163314801590612494575060175460ff16155b80156124a95750601554600160a01b900460ff165b801561113e575050601654306000908152601a6020526040902054101590565b6017805460ff191660011790556012546013546000916124e891610f92565b6124f4576007546124f7565b60005b601954306000908152601a60205260408120549293509161251791611e40565b905060006125396002611138600b5461113887876122a990919063ffffffff16565b90506000612547838361217c565b6040805160028082526060820183529293506000929091602083019080368337019050509050308160008151811061257b57fe5b6001600160a01b03928316602091820292909201810191909152601454604080516315ab88c960e31b81529051919093169263ad5c4648926004808301939192829003018186803b1580156125cf57600080fd5b505afa1580156125e3573d6000803e3d6000fd5b505050506040513d60208110156125f957600080fd5b505181518290600190811061260a57fe5b6001600160a01b0392831660209182029290920181019190915260145460405163791ac94760e01b8152600481018681526000602483018190523060648401819052426084850181905260a060448601908152895160a487015289514799979097169763791ac947978c9795968c9690939260c49091019187820191028083838b5b838110156126a457818101518382015260200161268c565b505050509050019650505050505050600060405180830381600087803b1580156126cd57600080fd5b505af11580156126e1573d6000803e3d6000fd5b5050505060006126fa824761217c90919063ffffffff16565b9050600061271561270c896002611e40565b600b549061217c565b9050600061272a60026111388481878e6122a9565b9050600061274783611138600954876122a990919063ffffffff16565b9050600061276484611138600854886122a990919063ffffffff16565b6010546040519192506000916001600160a01b039091169061753090849084818181858888f193505050503d80600081146127bb576040519150601f19603f3d011682016040523d82523d6000602084013e6127c0565b606091505b50506011546040519192506001600160a01b0316906175309085906000818181858888f193505050503d8060008114612815576040519150601f19603f3d011682016040523d82523d6000602084013e61281a565b606091505b5060009250508a1590506128cb57601454600f546040805163f305d71960e01b8152306004820152602481018e905260006044820181905260648201526001600160a01b0392831660848201524260a48201529051919092169163f305d71991879160c48082019260609290919082900301818588803b15801561289d57600080fd5b505af11580156128b1573d6000803e3d6000fd5b50505050506040513d60608110156128c857600080fd5b50505b50506017805460ff1916905550505050505050505050565b6015546000906001600160a01b038481169116148061290f57506015546001600160a01b038381169116145b8015611ccc575050506001600160a01b031660009081526006602052604090205460ff161590565b600b54601554600091906001600160a01b038581169116141561296557600a54612962908290611de6565b90505b600c546000906129799061113886856122a9565b306000908152601a60205260409020549091506129969082611de6565b306000818152601a60205260409020919091556019546001600160a01b038816907fddf252ad1be2c89b69c2b068fc378daa952ba7f163c4a11628f55a4df523b3ef906129e4908590611e40565b60408051918252519081900360200190a36129ff848261217c565b9695505050505050565b612a138282612242565b612a4e5760405162461bcd60e51b8152600401808060200182810382526021815260200180612ac36021913960400191505060405180910390fd5b6001600160a01b0316600090815260209190915260409020805460ff1916905556fe45706f6368206d75737420626520686967686572207468616e2070726576696f75734d696e746572526f6c653a2063616c6c657220646f6573206e6f74206861766520746865204d696e74657220726f6c65526f6c65733a206163636f756e7420646f6573206e6f74206861766520726f6c65536166654d6174683a206d756c7469706c69636174696f6e206f766572666c6f77526f6c65733a206163636f756e7420697320746865207a65726f2061646472657373a264697066735822122089e546164072202d586e094d3595884cb8494bdddbb039c3ca547a9ae54a4fce64736f6c63430007060033526f6c65733a206163636f756e7420697320746865207a65726f2061646472657373",
  "linkReferences": {},
  "deployedLinkReferences": {}
}